:100000000C942A000C9447000C9447000C94470071
:100010000C9495010C94BC010C9447000C94F900CD
:100020000C9447000C9420010C9447010C946E0131
:100030000C9447000C94E3010C940A020C943102D6
:100040000C9447000C9447000C9447000C94470014
:100050000C94470011241FBECFE5D8E0DEBFCDBF12
:1000600010E0A0E6B0E0E0E9F7E002C005900D92F4
:10007000A836B107D9F720E0A8E6B0E001C01D928C
:10008000AE37B207E1F70E94A6000C94C6030C94A9
:100090000000CF93DF93CDB7DEB727970FB6F89464
:1000A000DEBF0FBECDBF0E947E0087E0E0E6F0E03D
:1000B000DE01119601900D928A95E1F729813A812E
:1000C0004B815C816D817E818F810E948E0027969D
:1000D0000FB6F894DEBF0FBECDBFDF91CF9108956C
:1000E0008CE790E00E94A30061E08CE790E00E9422
:1000F0008B0061E080E00E9488000895811103C0B8
:100100000E94AC000895813011F40E94C20008954D
:100110000E94D20008950E94E2000895CF93DF93D9
:10012000CDB7DEB727970FB6F894DEBF0FBECDBFB1
:100130000E94580227960FB6F894DEBF0FBECDBFBF
:10014000DF91CF9108950E948303089580E00E947B
:1001500049000E947000FDCF87B3806887BB87B3DA
:10016000806287BB87B3806187BB87B38F7B87BB88
:1001700088B3806188BB8DB180648DB98DB1806199
:100180008DB9089587B38F7787BB87B38F7D87BB82
:1001900087B38F7E87BB87B3806487BB8DB1806454
:1001A0008DB9089520E00BC098B39F7E98BB8FB99E
:1001B000779BFECF9FB198B3906198BB2F5F2617B6
:1001C00098F308950F931F93CF93DF938C01D62F4D
:1001D000C0E004C06D2F0E94D200CF5FF801EC0F89
:1001E000F11D80818111F6CFDF91CF911F910F9189
:1001F00008951F920F920FB60F9211242F933F93E1
:100200004F935F936F937F938F939F93AF93BF931E
:10021000EF93FF93E0916A00F0916B000995FF91D5
:10022000EF91BF91AF919F918F917F916F915F916E
:100230004F913F912F910F900FBE0F901F901895E7
:100240001F920F920FB60F9211242F933F934F934B
:100250005F936F937F938F939F93AF93BF93EF932E
:10026000FF93E0916A00F0916B000995FF91EF9187
:10027000BF91AF919F918F917F916F915F914F91BE
:100280003F912F910F900FBE0F901F9018951F92C6
:100290000F920FB60F9211242F933F934F935F93BA
:1002A0006F937F938F939F93AF93BF93EF93FF933E
:1002B000E0916C00F0916D000995FF91EF91BF9175
:1002C000AF919F918F917F916F915F914F913F91EE
:1002D0002F910F900FBE0F901F9018951F920F92A5
:1002E0000FB60F9211242F933F934F935F936F9309
:1002F0007F938F939F93AF93BF93EF93FF93E0917F
:100300006C00F0916D000995FF91EF91BF91AF9155
:100310009F918F917F916F915F914F913F912F911D
:100320000F900FBE0F901F9018951F920F920FB64F
:100330000F9211242F933F934F935F936F937F936B
:100340008F939F93AF93BF93EF93FF93E0916800D8
:10035000F09169000995FF91EF91BF91AF919F9145
:100360008F917F916F915F914F913F912F910F905E
:100370000FBE0F901F9018951F920F920FB60F92FD
:1003800011242F933F934F935F936F937F938F939A
:100390009F93AF93BF93EF93FF93E0916800F09129
:1003A00069000995FF91EF91BF91AF919F918F9156
:1003B0007F916F915F914F913F912F910F900FBE61
:1003C0000F901F9018951F920F920FB60F92112445
:1003D0002F933F934F935F936F937F938F939F934D
:1003E000AF93BF93EF93FF93E0917200F09173008E
:1003F0000995FF91EF91BF91AF919F918F917F915F
:100400006F915F914F913F912F910F900FBE0F9081
:100410001F9018951F920F920FB60F9211242F93D1
:100420003F934F935F936F937F938F939F93AF937C
:10043000BF93EF93FF93E0917000F09171000995E5
:10044000FF91EF91BF91AF919F918F917F916F91AC
:100450005F914F913F912F910F900FBE0F901F9082
:1004600018951F920F920FB60F9211242F933F935E
:100470004F935F936F937F938F939F93AF93BF93AC
:10048000EF93FF93E0916E00F0916F000995FF915B
:10049000EF91BF91AF919F918F917F916F915F91FC
:1004A0004F913F912F910F900FBE0F901F90189575
:1004B000CF93DF93CDB7DEB727970FB6F894DEBFA3
:1004C0000FBECDBF29833A834B835C836D837E83CC
:1004D0008F8387E0FE013196A4E7B0E001900D9292
:1004E0008A95E1F780917600803161F480937B00FA
:1004F00080B5806880BD80B58F7B80BD8BB18D7FDE
:100500008BB91BC0883061F480937B0080B5806814
:1005100080BD80B58F7B80BD8BB182608BB90DC0F3
:10052000823059F480937B0080B5806880BD80B5AF
:10053000806480BD80B5816080BD80917A0081300B
:1005400049F48AB180688AB98AB180648AB98AB16B
:1005500080628AB98AB180618AB98AB188608AB9B1
:1005600080B5806880BD80917800813069F028F086
:10057000823089F08330B1F01BC080B58F7E80BDA2
:1005800080B58F7D80BD14C080B5806180BD80B591
:100590008F7D80BD0DC080B58F7E80BD80B58062AF
:1005A00080BD06C080B5806180BD80B5806280BDA1
:1005B00080917700811107C080B5806880BD80B5CB
:1005C000877F80BD08C0813031F480B5806880BDF0
:1005D00080B5886080BD80B5806880BD80917900DD
:1005E0008230F9F028F4882341F0813081F036C060
:1005F000833009F1873049F131C080B58D7F80BDEE
:1006000080B58B7F80BD8AB18B7F8AB927C080B5CA
:10061000826080BD80B58B7F80BD8AB18B7F8AB9B7
:100620001DC080B58D7F80BD80B5846080BD8AB1DE
:100630008B7F8AB913C080B5826080BD80B584602D
:1006400080BD8AB18B7F8AB909C080B5826080BDC8
:1006500080B5846080BD8AB184608AB9809174005D
:100660009091750040917B00489F9001499F300D0B
:10067000112440E050E060E072E18AE790E00E94DF
:10068000A4032150310980B58F7780BD29B930BDD1
:1006900027960FB6F894DEBF0FBECDBFDF91CF9186
:1006A00008958BB180648BB980917900833031F0EB
:1006B000882321F0813011F0823039F45F9BFECF26
:1006C0004CB150E060E070E017C0873089F45F9B68
:1006D000FECF8BB19AB12CB18C7159F49695917073
:1006E000592F40E0422B052E000C660B770B04C0FF
:1006F00007C04FEF5FEFBA01342F252F862F972FBA
:10070000632F722F0895EF92FF920F931F93CF9351
:100710008C010E945103F8016083C0E008C0CF5FE4
:100720007801EC0EF11C0E945103F7016083F8017F
:10073000EC0FF11D80818D3091F71082CF911F91C8
:100740000F91FF90EF900895A1E21A2EAA1BBB1BF8
:10075000FD010DC0AA1FBB1FEE1FFF1FA217B3078D
:10076000E407F50720F0A21BB30BE40BF50B661FA3
:10077000771F881F991F1A9469F760957095809567
:1007800090959B01AC01BD01CF010895F894FFCF76
:080790006009100000030000E5
:00000001FF
