:100000000C942A000C9447000C9447000C94470071
:100010000C94B0010C94D7010C9447000C9414017B
:100020000C9447000C943B010C9462010C948901E0
:100030000C9447000C94FE010C9425020C944C0285
:100040000C9447000C9447000C9447000C94470014
:100050000C94470011241FBECFE5D8E0DEBFCDBF12
:1000600010E0A0E6B0E0E0E8F7E002C005900D92F5
:10007000A836B107D9F720E0A8E6B0E001C01D928C
:10008000AE37B207E1F70E94AB000C94BE030C94AC
:100090000000CF93DF93CDB7DEB727970FB6F89464
:1000A000DEBF0FBECDBF0E94830087E0E0E6F0E038
:1000B000DE01119601900D928A95E1F729813A812E
:1000C0004B815C816D817E818F810E94900082E0F6
:1000D0000E947F0027960FB6F894DEBF0FBECDBFFB
:1000E000DF91CF9108958CE790E00E948D008CE71E
:1000F00090E00E94A5008DE00E94A80008956FEF97
:100100000E94B1000895811103C00E94C9000895A2
:10011000813011F40E94DF0008950E94F3000895D9
:10012000CF93DF93CDB7DEB727970FB6F894DEBF36
:100130000FBECDBF0E94730227960FB6F894DEBFA4
:100140000FBECDBFDF91CF9108950E94890308951E
:100150000E946C03089581E00E9449000E94730090
:10016000FDCF813051F028F0823059F0833069F0B2
:1001700008958AB3682B6ABB089587B3682B67BB61
:10018000089584B3682B64BB089581B3682B61BB69
:10019000089587B3806887BB87B3806287BB87B3C6
:1001A000806187BB87B38F7B87BB88B3806188BB47
:1001B0008DB180648DB98DB180618DB9089587B39B
:1001C0008F7787BB87B38F7D87BB87B38F7E87BBD6
:1001D00087B3806487BB8DB180648DB90895779BA8
:1001E000FECF8FB10895EF92FF920F931F93CF939D
:1001F0008C010E94EF00F8018083C0E008C0CF5F4F
:100200007801EC0EF11C0E94EF00F7018083F801E9
:10021000EC0FF11D80818111F2CF1082CF911F91DF
:100220000F91FF90EF9008951F920F920FB60F92CB
:1002300011242F933F934F935F936F937F938F93EB
:100240009F93AF93BF93EF93FF93E0916A00F09178
:100250006B000995FF91EF91BF91AF919F918F91A5
:100260007F916F915F914F913F912F910F900FBEB2
:100270000F901F9018951F920F920FB60F92112496
:100280002F933F934F935F936F937F938F939F939E
:10029000AF93BF93EF93FF93E0916A00F0916B00EF
:1002A0000995FF91EF91BF91AF919F918F917F91B0
:1002B0006F915F914F913F912F910F900FBE0F90D3
:1002C0001F9018951F920F920FB60F9211242F9323
:1002D0003F934F935F936F937F938F939F93AF93CE
:1002E000BF93EF93FF93E0916C00F0916D0009953F
:1002F000FF91EF91BF91AF919F918F917F916F91FE
:100300005F914F913F912F910F900FBE0F901F90D3
:1003100018951F920F920FB60F9211242F933F93AF
:100320004F935F936F937F938F939F93AF93BF93FD
:10033000EF93FF93E0916C00F0916D000995FF91B0
:10034000EF91BF91AF919F918F917F916F915F914D
:100350004F913F912F910F900FBE0F901F901895C6
:100360001F920F920FB60F9211242F933F934F932A
:100370005F936F937F938F939F93AF93BF93EF930D
:10038000FF93E0916800F09169000995FF91EF916A
:10039000BF91AF919F918F917F916F915F914F919D
:1003A0003F912F910F900FBE0F901F9018951F92A5
:1003B0000F920FB60F9211242F933F934F935F9399
:1003C0006F937F938F939F93AF93BF93EF93FF931D
:1003D000E0916800F09169000995FF91EF91BF915C
:1003E000AF919F918F917F916F915F914F913F91CD
:1003F0002F910F900FBE0F901F9018951F920F9284
:100400000FB60F9211242F933F934F935F936F93E7
:100410007F938F939F93AF93BF93EF93FF93E0915D
:100420007200F09173000995FF91EF91BF91AF9128
:100430009F918F917F916F915F914F913F912F91FC
:100440000F900FBE0F901F9018951F920F920FB62E
:100450000F9211242F933F934F935F936F937F934A
:100460008F939F93AF93BF93EF93FF93E0917000AF
:10047000F09171000995FF91EF91BF91AF919F911C
:100480008F917F916F915F914F913F912F910F903D
:100490000FBE0F901F9018951F920F920FB60F92DC
:1004A00011242F933F934F935F936F937F938F9379
:1004B0009F93AF93BF93EF93FF93E0916E00F09102
:1004C0006F000995FF91EF91BF91AF919F918F912F
:1004D0007F916F915F914F913F912F910F900FBE40
:1004E0000F901F901895CF93DF93CDB7DEB7279766
:1004F0000FB6F894DEBF0FBECDBF29833A834B837E
:100500005C836D837E838F8387E0FE013196A4E751
:10051000B0E001900D928A95E1F7809176008031EC
:1005200061F480937B0080B5806880BD80B58F7B4F
:1005300080BD8BB18D7F8BB91BC0883061F48093F7
:100540007B0080B5806880BD80B58F7B80BD8BB11E
:1005500082608BB90DC0823059F480937B0080B5E6
:10056000806880BD80B5806480BD80B5816080BDBD
:1005700080917A00813049F48AB180688AB98AB161
:1005800080648AB98AB180628AB98AB180618AB985
:100590008AB188608AB980B5806880BD8091780012
:1005A000813069F028F0823089F08330B1F01BC0CF
:1005B00080B58F7E80BD80B58F7D80BD14C080B535
:1005C000806180BD80B58F7D80BD0DC080B58F7E80
:1005D00080BD80B5806280BD06C080B5806180BD71
:1005E00080B5806280BD80917700811107C080B5A1
:1005F000806880BD80B5877F80BD08C0813031F4C0
:1006000080B5806880BD80B5886080BD80B5806819
:1006100080BD809179008230F9F028F4882341F080
:10062000813081F036C0833009F1873049F131C023
:1006300080B58D7F80BD80B58B7F80BD8AB18B7F7B
:100640008AB927C080B5826080BD80B58B7F80BDB0
:100650008AB18B7F8AB91DC080B58D7F80BD80B582
:10066000846080BD8AB18B7F8AB913C080B58260F7
:1006700080BD80B5846080BD8AB18B7F8AB909C096
:1006800080B5826080BD80B5846080BD8AB18460A1
:100690008AB9809174009091750040917B00489FC9
:1006A0009001499F300D112440E050E060E072E17C
:1006B0008AE790E00E949C032150310980B58F7732
:1006C00080BD29B930BD27960FB6F894DEBF0FBEA6
:1006D000CDBFDF91CF91089590917900933031F0A3
:1006E000992321F0913011F0923039F45D9BFECFC7
:1006F0008CB98BB180648BB90895973049F45D9BB8
:10070000FECF9AB19E7F9AB99AB191609AB98CB98D
:1007100008950F931F93CF938C01C0E003C00E94F4
:100720006C03CF5FF801EC0FF11D80818111F7CFD1
:10073000CF911F910F910895A1E21A2EAA1BBB1B06
:10074000FD010DC0AA1FBB1FEE1FFF1FA217B3079D
:10075000E407F50720F0A21BB30BE40BF50B661FB3
:10076000771F881F991F1A9469F760957095809577
:1007700090959B01AC01BD01CF010895F894FFCF86
:080780006009100000030000F5
:00000001FF
